:400000000080002011000000591700005917000008B5044B1A6803F53F5302331A6001F0BBFB00BFFA46004010B5054C237833B9044B13B10448AFF300800123237010BDE0
:400040008883FF1F0000000000650000084B10B51BB108490848AFF300800848036803B910BD074B002BFBD0BDE81040184700BF000000008C83FF1F00650000C880FF1FB4
:40008000000000000122014B1A707047A483FF1F0122014B5A707047A483FF1FF0B585B0684601F0BDF9029D009FBD42ACBF0020012001F0EBFF039C019EB442ACBF002064
:4000C000012003F03FF8ED1B002DB8BF6D42042D02DD012001F0E6FFA41B002CB8BF6442042C02DD012002F0E7FC05B0F0BD00BF08B5002001F0D6FF002002F0DDFC012274
:40010000014B9A7008BD00BFA483FF1FF0B585B062B602F051FC01F051FC01F0B3FD02F02DF802F097F803F071F802F05DF902F015FD01F09BF900F0E9FC00F04BFC00F0CF
:4001400053FC0021084601F0AFF858B1012001F079F80446032001F075F80146204601F06BF902E0684601F05BF9334802F09AF8324803F073F8324802F0E4F8314802F071
:40018000B9F8012002F008F80021012001F08CF810B12D4801F098FC2C4B9B7823B100222A4B9A7001F062F9284B1B7823B10022264B1A7000F018FC244B5B780BB30022A1
:4001C000224B5A7001F086FB044601F089FB064601F08EFB054601F093FB0746684601F01FF9009801990DB107B904380DB907B104300CB106B904390CB906B1043101F00A
:400200001BF900F0A7FF01F065FB50B101F068FB48B101F06DFB40B101F072FB38B1012006E0002004E0002002E0002000E0002001F00CFBB0E700BF850000009100000053
:400240009D000000F100000008650000A483FF1F83B27F2B3CD800293ADB1F2938DC012A03D09AB1022A23D070471A4A0B46002900DACB1DDB1000EBC31001F0070101232C
:4002800003FA01F1135C194311547047114A0B46002900DACB1DDB1000EBC31001F00701012303FA01F1135C23EA010111547047084A0B46002900DACB1DDB1000EBC3104B
:4002C00001F00701012303FA01F1135C59401154704700BFCD80FF1FF0B5BDF81440904267D10D46002900DACD1DED1000EBC510444F07441846002B00DAD81DC01002EBFC
:40030000C012404810443A4650E0BA4218D13E4D0D4003D5013D65F007050135EEB2F5186D1AEDB2062D00D90725AD1B01354FF0010E0EFA05F5013D05FA06F6F6B20EE0CD
:4003400082420CD1304D1D4003D5013D65F0070501352DB2012606FA05F56E1EF6B2BA4201D0824212D1012C03D034B1022C09D01BE015783543157017E0157825EA06059E
:40038000157012E01578754015700EE0012C03D02CB1022C06D008E0FF25157005E00025157002E01578ED43157080328242ACD9F0BD0B46002900DACB1DDB1000EBC3135C
:4003C000104D2B44121A1A4401F00701012000FA01F1CDB212E0012C03D034B1022C09D00BE018782843187007E0187820EA0100187002E018786840187001339342EAD95E
:40040000F0BD00BFCD80FF1F07000080B1F90020154B1B78022B0CD0032B19D0012B21D1B0F900300B80114B1B889A1A013A02807047B0F900200D4B1B889B1A013B0380A0
:40044000B1F900200A4B1B889B1A013B0B80704710B4B0F90040064B1B881B1B013B0B80028010BC704700BF1E84FF1F1C84FF1F2084FF1F10B584B0ADF80E00ADF80C1078
:40048000ADF80A20ADF80830904203D009B21BB2994271D1394B1B78012B01D0032B1AD1002869DB364BB3F90030984264DA002A62DB9A4260DABDF90C30002B5CDB314AEC
:4004C000B2F90020934257DABDF90830002B53DB9A421ADC50E0BDF90C30002B4CDB2849B1F900108B4247DABDF90830002B43DB994241DD00283FDB224BB3F900309842F0
:400500003ADA002A38DB9A4236DA03A90DF10E00FFF77CFF02A90DF10A00FFF777FFBDF90E30BDF90A20934205D1BDF90800BDF90C10884207DBBDF90C00BDF90810884221
:400540000DD193420BDDADF80E20ADF80A30BDF90C30BDF80820ADF80C20ADF80830BDF90830BDF90A20BDF90C10BDF90E00BDF818400094FFF7B0FE04B010BD1E84FF1FC7
:400580002084FF1F1C84FF1FF8B507460E460021084B187801F0F2FC0024FF2504E0385D01F048FD05460134B442F8DB01F026FD2846F8BDA883FF1F10B5054C4FF40072FF
:4005C0000021601C03F09DFC4023237010BD00BFCC80FF1F00B583B00A4B186800909A889B79ADF804208DF8063007216846FFF7CBFF40F201210448FFF7C6FF03B05DF8E6
:4006000004FB00BF1C650000CC80FF1F0A4B18800A4B19800A4B58809980002209490A70DA801A8101229A724FF6FF719981D981054B1A70704700BF1C84FF1F2084FF1FE5
:40064000A883FF1F1E84FF1F2284FF1F30B589B00C4B187020218020FFF7D8FF01AC0A4D55F8080F6968AA68EB680FC42869696903C42B8B23801A2101A8FFF785FF09B0F7
:4006800030BD00BFA883FF1F1C650000014BD88019817047A883FF1F08B90120FFE7014B98727047A883FF1F014B9881D8817047A883FF1F10B582B0ADF80600ADF804104F
:4006C000002819DB0D4BB3F90230984214DA0BB2002B11DB0949B1F904108B420CDA144601A90DF10600FFF791FE2246BDF90410BDF90600FFF7ACFD02B010BDA883FF1F67
:400700002DE9F04F85B005460E461746BDF838200292B84201D0994207D1029A00923A4631462846FFF7A6FE52E0C1EB0308B8F1000FB8BFC8F10008C0EB0709B9F1000F9A
:40074000B8BFC9F10009C84504DD3A461F4613460D460646BD4205DD32461E4613462A463D461746C5EB070B1FFA8BFB0FFA8BF4C6EB030ABAF1000FB8BFCAF1000A04EB82
:40078000D47464109E4202DA012303931EE04FF0FF3303931AE0C84505DD029A29463046FFF788FF04E0029A31462846FFF782FFCAEB0404A3B21CB2002C05DA039A16445D
:4007C00036B20BEB030424B201352DB2BD42E2DD05B0BDE8F08F00BF2DE9F04383B005460E4617469846BDF8289093420FDC0C461EE006EB0803013BCDF800901BB222463E
:4008000031462046FFF77CFF013424B200E00446EB199C42EDDB0FE0EA19013ACDF80090234612B221462846FFF76AFF013424B206EB08039C42EFDB03B0BDE8F08300BF6F
:400840002DE9F04F85B0BDF838B09DF83C60364CB4F90240844263DD334CB4F904408C425EDD06EB46056C000444012C58D401EBC604012C54D4984603928A4681460027AB
:400880004CE0052F08D0039B03EB83033B44274A134493F8245000E0002500243AE015F0010F19D0012E09D104EB0A0107EB0900424609B200B2FFF7FDFE28E0B0B232B235
:4008C00004FB00A107FB0090CDF80080134609B200B2FFF781FF1AE0D84518D0012E09D104EB0A0107EB09005A4609B200B2FFF7E1FE0CE0B0B232B204FB00A107FB009002
:40090000CDF800B0134609B200B2FFF765FF6D08013464B2072CC2DD01377FB2052FB0DD05B0BDE8F08F00BFA883FF1F1C6500000A2808D11A4B997A1A8902EBC1021A8193
:400940000022DA8070470D28FCD030B583B00246134CE389B4F90810B4F90600A57A0195A5890095FFF76CFFA27A91B201EB41035800E38803441BB2E3800A48007868B11B
:40098000A2EB82025000B4F902201044834205DD228902EBC10121810022E28003B030BDA883FF1F2284FF1F70B5064603F050FF0546002403E0305DFFF7BAFF0134AC427B
:4009C000F9D370BD08B5FFF7EFFF0A20FFF7B0FF08BD00BF08B53C20FFF738FEFFF7ECFDFFF7F8FD08BD00BF70B58EB00AA800F017FDFFF7E1FD0120FFF74EFE0120FFF710
:400A000053FE00210846FFF741FE0120FFF744FE0120FFF749FE00210846FFF737FE0A9803F04EF8244903F053F904460C9803F047F8214903F04CF90646204602F032FF52
:400A400004460D46304602F02DFFCDE9000122462B461A4902A803F0CDFE02A8FFF7B2FF0120FFF721FE0B9803F02AF8124903F02FF904460D9803F023F80F4903F028F9CC
:400A80000646204602F00EFF04460D46304602F009FFCDE9000122462B46094902A803F0A9FE08210020FFF7F1FD02A8FFF78AFFFFF790FD0EB070BD610B36413C6A000005
:400AC000506A000000230C4A13700C4A93600C4A93600C4A93600C4A936009E000220749CA540749CA540749CA540749CA540133042BF3DD704700BFB883FF1F1084FF1FA5
:400B0000F883FF1FEC83FF1F0484FF1F00B583B0054B0093054B064A06490748FFF7D2FF03B05DF804FB00BF0484FF1FEC83FF1FF883FF1F1084FF1FB883FF1F094B1B68A5
:400B400003445B7813F0040F07D08B68032B06DC5A1C8A60C85400207047012070470020704700BFE482FF1F8B68032B04DC5A1C8A60C854002070470120704710B40446EC
:400B80000022104606E000EB80035900A35C303BC8180132A3689A42F5DB10BC704700BFA64B9B68042B40F0D18230B58DB0684600F036FCA249A14803F040FE002834D1D0
:400BC000A04B9B68002B40F057829F4B9B68002B40F054829D4B9B68002B40F05182012000F030FB0546032000F02CFB0446284602F066FF964903F06BF80546204602F0F4
:400C00005FFF934903F064F803F0FEF80446284603F0FAF8234602468E4904A803F0EAFD04A800F051FF002092E28B49834803F005FEE0B9834B9B68002B40F02382824B4B
:400C40009B68002B40F02082804B9B68002B40F01D820021084600F027FB02467F4904A803F0C8FD04A800F02FFF002070E27C49724803F0E3FD60BB724B9B68002B40F0F3
:400C80000782714B9B68002B40F004826F4B9B68002B40F00182029802F012FF6C4903F017F80546039802F00BFF694903F010F803F0AAF80446284603F0A6F823460246FE
:400CC000644904A803F096FD04A800F0FDFE00203EE26449594803F0B1FD60BB594B9B68002B40F0DB81584B9B68002B40F0D881564B9B68002B40F0D581009802F0E0FEBF
:400D0000534902F0E5FF0546019802F0D9FE504902F0DEFF03F078F80446284603F074F8234602464B4904A803F064FD04A800F0CBFE00200CE24C49404803F07FFDE0B9D5
:400D4000404B9B68002B40F0AF813F4B9B68002B40F0AC813D4B9B68002B40F0A9810021012000F0A1FA0246404904A803F042FD04A800F0A9FE0020EAE13D492F4803F09B
:400D80005DFD002838D12F4B9B68002B40F392812D4B9B68002B40F38F812C4B9B68002B40F08C812748FFF7E9FE80B2B0F5B47F01D94FF4B47002F083FE254902F0D4FEB3
:400DC00003F048F8012180B200F030FA1E48FFF7D5FE80B2B0F5B47F01D94FF4B47002F06FFE1B4902F0C0FE03F034F8032180B200F01CFA0020ABE11E49104803F01EFD71
:400E0000002839D10F4B9B68002B40F359810E4B9B68002B40F056810C4B9B68002B40F053810848FFF7AAFE002211469042D4BF0020012000F012FA002089E11084FF1F8F
:400E4000646A0000F883FF1FEC83FF1F0484FF1F610B36416C6A0000806A0000886A0000A06A0000A86A0000B06A0000B86A0000D06A0000D86A0000A549A64803F0DEFCC6
:400E8000002837D1A44B9B68002B40F31F81A34B9B68002B40F31C81A14B9B68002B40F019819D48FFF76AFE85B29C48FFF766FE84B2B5F5B47F01D94FF4B475B4F5B47F55
:400EC00001D94FF4B474284602F0FAFD954902F04BFE02F0BFFF85B2204602F0F1FD914902F042FE02F0B6FF81B2284600F0A4FA00202DE18C49874803F0A0FCD8B9864B6B
:400F00009B68002B40F3E880844B9B68002B40F0E580834B9B68002B40F0E2807E48FFF72DFE002201219042D4BF0020012000F095F900200CE17D49764803F07FFCF8B9C9
:400F4000754B9B68002B40F3CD80744B9B68002B40F0CA80724B9B68002B40F0C7806E48FFF70CFEC0B2431EDBB20F2B03D800F011FA0020ECE06E4800F0A6FD0120E7E0F7
:400F80006C49644803F05AFCD8B9634B9B68002B40F0AE80614B9B68002B40F0AB80604B9B68002B40F0A880012000F04BF90446032000F047F90146204600F03DFA002070
:400FC000C6E05D49534803F039FC002800F096805A49504803F032FCF8B94F4B9B68002B40F38E804D4B9B68002B40F08B804C4B9B68002B40F088804748FFF7BFFDC0B2ED
:40100000431EDBB20F2B03D800F0ECF900209FE0474800F059FD01209AE049493D4803F00DFC38BB3C4B9B684BB93C4A926832B93B4A92681AB900F051F9002088E0002B8B
:4010400064DD364B9B68002B7CD1354B9B68002B7AD13148FFF792FDC0B2431EDBB20F2B03D800F059F9002072E0314800F02CFD01206DE001206BE0012069E0012067E0D5
:40108000012065E0012063E0012061E001205FE001205DE001205BE0012059E0012057E0012055E0012053E0012051E001204FE001204DE001204BE0012049E0012047E0C0
:4010C000012045E0012043E0012041E001203FE001203DE001203BE0012039E0012037E0012035E0012033E0012031E001202FE001202DE001202BE0012029E0012027E080
:40110000012025E0012023E0012021E001201FE0E06A00001084FF1FF883FF1FEC83FF1F0484FF1F610B3641E86A0000F06A0000F86A0000046B00000C6B0000146B000005
:401140001C6B0000012003E0012001E0012070470DB030BD10B500F03FFC002857D0044600F07AFC0D2C02D0202C0ED026E0284800F0AAFC0022274B1A70FFF711FD0446C4
:4011800000283ED1FFF79EFC3BE0224B1B78032B03D8DFE803F004090E33002431E001221C4B1A7000242CE002221A4B1A70002427E00322174B1A70002422E0154B1B785B
:4011C000032B1DD8DFE803F002080E1412492046FFF7CAFC044614E010492046FFF7AEFC04460EE00E492046FFF7A8FC044608E00C492046FFF7A2FC044602E0012400E08B
:40120000002424B1FFF75EFC074800F05DFC10BD506B0000B883FF1F1084FF1FF883FF1FEC83FF1F0484FF1F246B000038B504460D46000A01F0C4FB691CE0B201F0C0FBD8
:4012400038BD00BF38B5054601F022FC0446681C01F01EFC00EB042080B238BD70B506460D461446104601F013FC6EB140FA05F313F0010F16D1012303FA05F528432146B8
:40128000C0B201F09DFB70BD40FA05F313F0010F08D0012303FA05F520EA05002146C0B201F08EFB70BD00BF10B50446084601F0EFFB0123A340184214BF0120002010BD06
:4012C00010B504460520FFF7BDFF013C0123A340184214BF0120002010BD00BF70B584B00520FFF7AFFF064601252C460EE0344214BF012300232A46064901A803F07AFA77
:4013000001A800F0E1FB6400A4B20135102DEEDD04B070BD486B000030B589B00446FFF7CFFF60B3013CE4B2A000063000F0FE00FFF788FF05460234A00000F0FC00FFF756
:4013400081FF0446284602F0BBFB0F4902F0C0FC0546204602F0B4FB0B4902F0B9FC02F053FD0446284602F04FFD234602460749684603F03FFA684600F0A6FB02E00448BA
:4013800000F0A2FB09B030BD610B36416C6A0000546B000030B585B00446684600F040F8611E8900063101F0FE01BDF80000FFF73DFF651CA90001F0FC01BDF80400FFF76B
:4013C00035FFE8B2FFF77CFF50B90520FFF73AFF012303FA04F42044052180B2FFF726FF05B030BD38B50446FFF76AFF90B1601E8000063000F0FE00FFF724FF0546601CE6
:40140000800000F0FC00FFF71DFF0146284600F013F838BD014800F057FB38BD546B000010B40446034B0FCB84E80F00204610BC704700BFBC83FF1F002803DBB0F5805F0A
:4014400002DA03E0002001E040F6FF70002903DBB1F5805F02DA03E0002101E040F6FF71014B186059607047BC83FF1F38B5044601F08CFA0021362001F05EF980B90E20AF
:4014800001F00AFA0121362001F0A0F9012001F039FA0546002001F035FA00EB0520A06001F0D2F901F03EFE0021362001F006FD80B90E2001F0B6FD0121362001F04AFD46
:4014C000012001F0E7FD0546002001F0E3FD00EB0520E06001F07EFD38BD00BFFEE700BFF0B40022174611E050F82760F3B226F0FF0608E001EB420511F812406D78A555AE
:401500000132013BDBB2002BF4D10137252FEBD9F0BC7047064B1B78DBB203F00701054A11701B09013213704422034B1A707047CF0100496E5800407658004008B50A46C7
:40154000002102F0DEFC08BD38B50E222E4B1A8018232E4A13701925023215800232137040F2A931023211800232137042F29E41023211800232137045F6BF51023211806E
:40158000023213700222224B1A7008224FF040231A70032103F5007319701E4B1B78DBB21D490B701D4B1A8041F25122023B1A8000240CE01A4B1B7803F0010343EA44048E
:4015C00004F003044FF4F07001F056FE013D0DB1032CEFD115B90320FFF780FF114B4FF480721A8007221A7000220F490A704820023108701A700222033B1A700B4A13787C
:4016000043F01F03137038BD80400040824000400043004008010049A146004022420040254200400440004006400040A243004008B502F05BFC08BD38B572B6354A13787B
:4016400043F00403137000240CE0334D630019194A0011462A44084691882858FFF76EFF0134E4B2092CF0D900240BE02A49A3001819420088180622016CC06BFFF7D8FFA1
:401680000134E4B2002CF1D024494FF09040FFF727FF234A137843F0020313701032137843F0020313701F4C237843F040032370A2F58632513A137843F0100313700A2236
:4016C00019491A48FFF7B4FF0A2219491948FFF7AFFF0A2218491948FFF7AAFF082218491848FFF7A5FF184A137843F008031370164D61232B70FFF727FF81232B7001222A
:40170000134B1A70FFF706FF0E2221461148FFF78FFF38BDE8460040686B00009800004803500140A0430040C40E0048C0510040D00E004810510040DC0E00482051004070
:40174000E80E004832510040224300400048004004000840B043004008B502F09BFB03680C2B00D1FEE7FEE708B5094B1A681044084BC31AB3F5006F02DC054B186005E081
:4017800002F088FB0C2303604FF0FF32104608BDD082FF1F9084FF1F08B5104E104D16E029686B68AC68002204E051F8040B43F8040B0432A242F8D1E868002203E000210E
:4017C00043F8041B04328242F9D11035013E002EE6D102F065FBFEF799FCFEE701000000386E000008B5104A104B1A60104A136843F40073136000230AE0032B03D80D4AAF
:4018000052F8231000E00C490C4A42F8231001332F2BF2D90A4B1A780A4B1A70074A0A4B1A60FFF709FF08BD0004FA050CED00E014ED00E000000000591700000080FF1F66
:40184000BC760040C080FF1F08ED00E0044A137803F0FD03400000F002001843107070472051004001BE704708B5034B1B7A00FB03F001F001FD08BDD482FF1F70B50446E7
:401880000E46074B1D681F2802D90020FFF7EAFF04F01F04103455F8240045F8246070BD08ED00E038B504460D46072902D90020FFF7D8FF1F2C02D90020FFF7D3FF04F0C9
:4018C0001F0000F1604000F564406D01EDB2057038BD00BF014B1878C009704721510040024B1878C0F38010704700BF21510040024B1878C0F38000704700BF11510040EB
:40190000024B1878C0F38010704700BF1151004008B511490620FFF7B1FF07210620FFF7C1FF00220D4B1A7072220D4B1A702022013B1A700B490720FFF7A0FF0721084680
:40194000FFF7B0FF0622084B1A70472210331A7002224F331A7008BDED1A0000CC83FF1F8A650040851B00002C64004010B501F08BFC04460D4A137843F020031370013A02
:40198000137843F010031370094A4023136009490B7843F010030B70802307490B60136000F01CF9204601F073FC10BD9A65004000E100E09B64004080E200E008B5054B1D
:4019C0005B7823B9FFF7A4FF0122024B5A70FFF7CDFF08BDCC83FF1F4022194B1A60194A9378DBB2D178C9B2127912F0FF0F01D18B4211D0144AD05CC0B20133DBB20F2B60
:401A000000D900230F4A9370137913F0FF0F13D000220C4B1A710FE00C4B1B78DBB213F0200F06D00A4A1078C0B213F01E0F02D102E0002000E000204022064B1A60704725
:401A400080E100E0CC83FF1F2484FF1F696500404A65004000E100E0164BD9799B79DBB2994205D25A1E914214BF0022012204E0CA1A0F2A14BF00220122002AECD19942F0
:401A800007D10D4B1B7813F0040F02D10B4B187070470F2900D90021094B58540131054BD971054B1B7813F0020F02D08022054B1A607047CC83FF1F6B6400404F6400408C
:401AC0003484FF1F00E200E038B5074B5B782BB938BDFFF7C1FF0134A4B201E005460024285D0028F5D138BDCC83FF1F1D4B1B78DBB213F01E0F05D01B4803F01E02017881
:401B00000A43027003F0200303F0FF0233B3174B1978C9B2164B1B78DBB21648C154164B1B7813F0FF0F02D00121144B197010490B780133DBB20B700B78DBB20F2B02D976
:401B400000210B4B19700A4B1978C9B20C4B1B78DBB2994202D10121074B1970002AC5D1704700BF69650040CC83FF1F4A650040CF83FF1F2484FF1FD083FF1FD183FF1F29
:401B8000CE83FF1F13E0104B1B78DBB20F2B02D900220D4B1A700C4A1378DBB20B49CB5CDBB20B490B7013780133DBB21370064B1B78DBB2074A1278934204D0064B1B7842
:401BC00013F0040FDFD07047D283FF1F3484FF1F4F640040D383FF1F6B640040054A137843F0020313701032137843F002031370704700BFA243004038B50222114B1A70FB
:401C000081220E3B1A70082202331A700F2511331D70002401331C704FF400420A4B1A6007212846FFF73EFE08492846FFF726FE1022074B1A70074B1C70074B1C70074B4B
:401C40001C7038BDD649004080E100E0AD1C00004484FF1F5484FF1F5184FF1F5284FF1F08B501F011FB064A137843F0040313701032137843F00403137001F009FB08BD21
:401C8000A543004008B5074B1B7823B9FFF7B4FF0122044B1A70FFF7E3FF4FF40042024B1A6008BDD583FF1F00E100E038B5A54B1C78A54B1B7813F0400F00F03A81E4B232
:401CC00014F0010F00F01D819F4B1B78453B052B00F21481DFE813F006008200120112010600DF0004F0DF0504F00A04082C42D1954B1B78DBB2452B35D1944B1B7813F025
:401D0000FF0F10D0924B1B681B78DBB2914A137004228C4B1A7001228F4B1A7046228A4B1A702C46EDE08D4B1B7813F0020F0DD08B4A137843F00A0313706022824B1A706B
:401D40004FF40042874B1A602C46DAE0864A137843F0100313701022844B1A700422023B1A702C46CDE00022764B1A704A22764B1A702C46C5E00A2C2BD1794A137843F0BD
:401D8000A0031370754B1B7813F0020F14D06E4B1B7813F0080F01D0092300E00A23704A11780B4313706022674B1A704FF400426C4B1A602C46A4E06B4A137843F010033E
:401DC00013701022694B1A700422023B1A702C4697E00020FFF746FD2C4692E014F0020F36D15D4B1A78D2B2584B1B78DBB29A4210D2594A1378DBB255490968CB5CDBB204
:401E000054490B7004214F4B197013780133DBB2137076E0514B1B7813F0020F0CD0504A137843F00A0313706022474B1A704FF400424C4B1A6064E04B4A137843F0100338
:401E400013701022494B1A700422023B1A7058E0424B1B7813F0020F0CD0414A137843F09A0313706022384B1A704FF400423D4B1A6046E03C4A137843F0100313701022A9
:401E80003A4B1A700422023B1A70354A137843F09003137035E0364A1378DBB2354908682C490978C9B2C15413780133DBB213701278D2B2304B1B78DBB29A4203D2102257
:401EC000204B1A701DE0254B1B7813F0020F0CD0234A137843F00903137060221A4B1A704FF400421F4B1A600BE01F4A137843F0100313700022134B1A7002E00020FFF7BF
:401F0000B1FC14F0200F1CD00F4B1B7813F0080F01D0012300E00223114A11780B431370114A137803F0EF0313701022064B1A7038BD054B1B7813F0100F02D11022024B78
:401F40001A7038BDD74900404484FF1F5584FF1F4C84FF1FD84900405284FF1F5084FF1F5484FF1F80E100E0D6490040D94900405184FF1F4884FF1F5384FF1F1A4B1B78AE
:401F8000DBB2102B29D1194B1B7813F0080F26D14FF40042164B1A604000C0B229B140F001004922104B1A7002E045220E4B1A70104B1870012201331A700F4B1B7813F00A
:401FC000010FFAD00C4B1B7803F00A030A2B08D11022054B1A700320704702207047012070470020704700BF4484FF1FD949004080E100E0D8490040D74900400A4B1B78B0
:4020000013F0040F0ED01023074A13700421023A1170064A1370064B1B7813F0210FFAD00020704702207047D94900404484FF1FD7490040114B1B7813F0040F1BD0104B6C
:4020400018700422013B1A7046220E4B1A700E4B1B7813F0010FFAD00B4B1B7813F0020F04D16022074B1A70002070476022054B1A70032070470220704700BFD9490040A1
:40208000D84900404484FF1FD7490040044A137803F0FE0300F0010018431070704700BF30510040044A137803F0FD03400000F0020018431070704730510040024A137881
:4020C00043F080031370704774640040014B1870704700BF07640040014B1870704700BF47640040014B1870704700BF27640040014B1870704700BF87650040014B187847
:40210000704700BF67650040014B1878704700BF5764004008B501E0FFF7F6FFFFF7EEFF10F0100FF8D108BD08B5124A137803F0C00343F0090313702332137843F0010384
:402140001370FF20FFF7C2FFFF20FFF7C5FF7F20FFF7C8FF0020FFF7CBFF01F095F8064A137843F01003137001F092F8FFF7D2FF08BD00BF746400409765004008B5054BA8
:402180001B7823B9FFF7D0FF0122024B1A70FFF795FF08BDD683FF1F014B1870704700BF76640040084A137843F0020313701032137843F00203137002F65932137843F066
:4021C00001031370704700BFA3430040014B1870704700BF0F4F0040014B1880704700BF104F0040014B1880704700BF124F004008B5154A137803F0010313700232137800
:4022000003F0FC031370114B1A7802F0CF021A701A7842F030021A701A7802F0F0021A701A7842F00F021A70094A137843F001031370FF20FFF7D0FFFF20FFF7D3FF00208C
:40224000FFF7C4FF08BD00BF0C4F0040174F00400D4F004008B5054B1B7823B9FFF7C8FF0122024B1A70FFF79DFF08BDD783FF1F014B1B685864704708ED00E04001C0B278
:40228000014B1870704700BF01E400E00222014B1A60704700E100E00222014B1A60704780E100E010B50446FFF7F6FF2046FFF7DFFF0720FFF7E2FFFFF7E8FF10BD00BF30
:4022C000014B1B689864704708ED00E04001C0B2014B1870704700BF02E400E00422014B1A60704700E100E00422014B1A60704780E100E010B50446FFF7F6FF2046FFF726
:40230000DFFF0720FFF7E2FFFFF7E8FF10BD00BF014B1B68D864704708ED00E04001C0B2014B1870704700BF03E400E00822014B1A60704700E100E00822014B1A607047EE
:4023400080E100E010B50446FFF7F6FF2046FFF7DFFF0720FFF7E2FFFFF7E8FF10BD00BF38B50024134B1C70012212331A7000F08BFF114A137843F01003137000F088FFF4
:402380000F220E4B1A70082210331A7010250C4B1D6007210420FFF785FA0A490420FFF76DFA094B1D70094B1C70094B1C70094B1C7038BD756400409764004028640040DE
:4023C00080E100E0112400005684FF1F6384FF1F6284FF1F6484FF1F024A137843F00203137070477564004008B5074B1B7823B9FFF7B6FF0122044B1A70FFF7EDFF1022C5
:40240000024B1A6008BD00BFD883FF1F00E100E038B5AC4B1C78AC4B1B7813F0400F00F07B81E4B214F0010F00F04281A64B1B78453B052B00F23981DFE813F00600920038
:40244000370137010600F90004F0DF0504F00A04082C50D19C4B1B78DBB2452B3DD19B4B1B7813F0FF0F16D0994B1B681B78DBB2984A13700622984B1A70FF22613B1A7001
:40248000002240331A700122944B1A7046228E4B1A702C460CE1924B1B7813F0020F0CD0904A137843F00A0313706022864B1A7010228D4B1A602C46FAE08C4A137843F07E
:4024C000200313705222844B1A70FF22613B1A70002240331A702C46EAE002227E4B1A70FF22613B1A70002240331A704A22764B1A702C46DCE00A2C2DD17A4A137843F04F
:40250000A0031370764B1B7813F0020F13D06E4B1B7813F0080F01D0092300E00A23714A11780B4313706022674B1A7010226E4B1A602C46BCE06D4A137843F02003137059
:402540005222654B1A70FF22613B1A70002240331A702C46ACE00020FFF784F92C46A7E014F0020F3ED15D4B1A78D2B2574B1B78DBB29A4216D2594A1378DBB2544909688C
:40258000CB5CDBB253490B700621534B1970FF21613B197000214033197013780133DBB2137085E04E4B1B7813F0020F0BD04D4A137843F00A0313706022434B1A701022A0
:4025C000494B1A6074E0494A137843F0200313705222414B1A70FF22613B1A70002240331A7065E03E4B1B7813F0020F0BD03D4A137843F09A0313706022334B1A70102221
:40260000394B1A6054E0394A137843F0200313705222314B1A70FF22613B1A70002240331A70304A137843F09003137040E0304A1378DBB22F49086826490978C9B2C15439
:4026400013780133DBB213701278D2B22A4B1B78DBB29A4209D202221F4B1A70FF22613B1A70002240331A7022E01D4B1B7813F0020F0BD01B4A137843F009031370602293
:40268000114B1A701022184B1A6011E0174A137843F02003137012220F4B1A70FF22613B1A70002240331A7002E00020FFF7DAF814F0200F38D0044B1B7813F0080F1DD003
:4026C00001231CE0676400405684FF1F6084FF1F6884FF1F04640040756400406484FF1F5884FF1F6384FF1F80E100E0876400406284FF1F5C84FF1F6184FF1F02230B4AFA
:4027000011780B4313700A4A137803F0DF0313701022084B1A7038BD064B1B7813F0100F02D11022034B1A7038BD00BF6384FF1F876400405684FF1F1F4B1B78DBB2102B80
:4027400033D11E4B1B7813F0100F30D110221C4B1A604000C0B229B140F001004922164B1A7002E04522144B1A70164B1870822271331A70FF22613B1A70002240331A70BD
:40278000114B1B7813F0FF0FFAD10C4B1B7813F0010FFAD0094B1B7803F00A030A2B08D11022054B1A700320704702207047012070470020704700BF5684FF1F6764004062
:4027C00080E100E004640040146400401A4B1B7813F0040F2BD04000C0B229B140F001004922164B1A7002E04522144B1A70144B1870322271331A70FF22613B1A70002218
:4028000040331A700F4B1B7813F0FF0FFAD10A4B1B7813F0010FFAD0074B1B7803F00A030A2B06D11022054B1A7003207047022070470020704700BF676400405684FF1FC4
:4028400004640040146400400F4B1B7813F0040F17D052220D4B1A70FF22613B1A70002240331A700A4B1B7813F0FF0FFAD11022084B1A70044B1B7813F0210FFAD0002080
:4028800070470220704700BF6764004075640040146400405684FF1F164B1B7813F0040F26D0154B1870062271331A70FF22613B1A70002240331A70104B1B7813F0FF0F52
:4028C000FAD146220E4B1A700A4B1B7813F0010FFAD0084B1B7813F0020F04D16022084B1A70002070476022054B1A7003207047022070476764004004640040146400407E
:402900005684FF1F1C4B1B7813F0040F31D01B4B1B78DBB2492B10D10222194B1A70FF22613B1A70002240331A70164B1B7813F0FF0FFAD14A22114B1A700F4B1B7813F029
:40294000010FFAD0104B1A78D2B270B1022171331970FF21613B1970002140331970094B1B7813F0FF0FFAD104E06021034B197000E0002210467047676400405684FF1F28
:402980007564004014640040046400401023044A1360044A107800211170034A1360704780E100E06384FF1F00E100E008B500F0C9FC00F0D1FC08BD08B5FFF7F7FF08BD52
:4029C00030B583B00C468DF8070000F005FDB4F5006F52D22509A4EB0514A4B200F0A8FD00284CD101230DF107022146402000F01FFD044607282FD1234B1B7813F0020F21
:402A0000FAD0214B1B7813F0020F06D01E4B1B789B0805D04FF0FF3403E04FF0FF3400E00024E4B9194A537812782946402000F03BFD072816D1144B1B7813F0020FFAD072
:402A4000114B1B7813F0020F0FD00F4B1B789B0810D04FF0FF340DE0012809D10AE04FF0FF3407E04FF0FF3404E04FF0FF3401E04FF0FF3400F082FD02E0012400E00424C6
:402A8000204603B030BD00BF224700408484FF1F38B5044600F0F8FB054600F087FC04F1804000F500400478E4B200F08DFC284600F0EEFB204638BD044A137803F0F703CD
:402AC000C00000F008001843107070473051004010B50024144B1C700122EA3B1A7000F0D3FB124A137843F01003137000F0D0FB0F220F4B1A70082210331A7020220D4B56
:402B00001A6007210520FEF7CDFE0B490520FEF7B5FE1022094B1A70094B1C70094B1C70094B1C7010BD00BF746500409A6400402964004080E100E0852B00006C84FF1F8E
:402B40007484FF1F7084FF1F7C84FF1F024A137843F00203137070477465004008B5074B1B7823B9FFF7B4FF0122044B1A70FFF7EDFF2022024B1A6008BD00BFD983FF1FA1
:402B800000E100E038B5AA4B1C78AA4B1B7813F0400F00F08481E4B214F0010F00F06781A44B1B78453B052B00F25E81DFE813F0060096005C015C010600000104F0DF058B
:402BC00004F00A04082C53D19A4B1B78DBB2452B3FD1994B1B7813F0FF0F17D0974B1B681B78DBB2964A13700622964B1A70FF22A3F5AB731A70002240331A700122924B8C
:402C00001A7046228B4B1A702C4630E18F4B1B7813F0020F0CD08E4A137843F00A0313706022844B1A7020228A4B1A602C461EE1894A137843F0200313705222814B1A705E
:402C4000FF22A3F5AB731A70002240331A702C460DE102227B4B1A70FF22A3F5AB731A70002240331A704A22724B1A702C46FEE00A2C2ED1764A137843F0A0031370734BE6
:402C80001B7813F0020F13D06A4B1B7813F0080F01D0092300E00A236D4A11780B4313706022644B1A7020226A4B1A602C46DEE0694A137843F0200313705222614B1A70F0
:402CC000FF22A3F5AB731A70002240331A702C46CDE00020FEF7C6FD2C46C8E014F0020F40D1594B1A78D2B2534B1B78DBB29A4217D2554A1378DBB250490968CB5CDBB26B
:402D00004F490B7006214F4B1970FF21A3F5AB73197000214033197013780133DBB21370A5E04A4B1B7813F0020F0BD0484A137843F00A03137060223E4B1A702022454B08
:402D40001A6094E0444A137843F02003137052223C4B1A70FF22A3F5AB731A70002240331A7084E0394B1B7813F0020F0BD0384A137843F09A03137060222E4B1A702022DD
:402D8000344B1A6073E0344A137843F02003137052222C4B1A70FF22A3F5AB731A70002240331A702A4A137843F0900313705EE02A4A1378DBB22A49086821490978C9B295
:402DC000C15413780133DBB213701278D2B2254B1B78DBB29A420AD202221A4B1A70FF22A3F5AB731A70002240331A703FE0174B1B7813F0020F0BD0154A137843F00903DA
:402E0000137060220B4B1A702022124B1A602EE0114A137843F0200313701222094B1A70FF22A3F5AB731A70002240331A701EE06A6400406C84FF1F7184FF1F7884FF1FEE
:402E40000E640040746500407C84FF1F7284FF1F7484FF1F80E100E08A6400407084FF1F8084FF1F7384FF1F0020FEF7FBFC14F0200F1CD00E4B1B7813F0080F01D0012361
:402E800000E002230B4A11780B4313700A4A137803F0DF0313701022054B1A7038BD044B1B7813F0100F02D11022014B1A7038BD6C84FF1F7484FF1F8A640040204B1B7802
:402EC000DBB2102B35D11F4B1B7813F0100F32D120221D4B1A604000C0B229B140F001004922174B1A7002E04522154B1A70174B1870822203F5B3731A70FF22A3F5AB736A
:402F00001A70002240331A70114B1B7813F0FF0FFAD10C4B1B7813F0010FFAD0094B1B7803F00A030A2B08D11022054B1A700320704702207047012070470020704700BF34
:402F40006C84FF1F6A64004080E100E00E6400401E6400401B4B1B7813F0040F2DD04000C0B229B140F001004922174B1A7002E04522154B1A70154B1870322203F5B373D3
:402F80001A70FF22A3F5AB731A70002240331A700F4B1B7813F0FF0FFAD10A4B1B7813F0010FFAD0074B1B7803F00A030A2B06D11022054B1A7003207047022070470020A9
:402FC000704700BF6A6400406C84FF1F0E6400401E6400400F4B1B7813F0040F18D052220D4B1A70FF22A3F5AB731A70002240331A700A4B1B7813F0FF0FFAD11022084BC1
:403000001A70044B1B7813F0210FFAD000207047022070476A640040746500401E6400406C84FF1F174B1B7813F0040F28D0164B1870062203F5B3731A70FF22A3F5AB73ED
:403040001A70002240331A70104B1B7813F0FF0FFAD146220E4B1A700A4B1B7813F0010FFAD0084B1B7813F0020F04D16022084B1A70002070476022054B1A700320704792
:40308000022070476A6400400E6400401E6400406C84FF1F1E4B1B7813F0040F34D01D4B1B78DBB2492B11D102221B4B1A70FF22A3F5AB731A70002240331A70174B1B782A
:4030C00013F0FF0FFAD14A22124B1A70104B1B7813F0010FFAD0124B1A78D2B280B1022103F5B3731970FF21A3F5AB731970002140331970094B1B7813F0FF0FFAD104E045
:403100006021044B197000E000221046704700BF6A6400406C84FF1F746500401E6400400E6400402023044A1360044A107800211170034A1360704780E100E07484FF1F75
:4031400000E100E0044A137803F0FB03800000F0040018431070704730510040084A137843F0010313701032137843F00103137002F64D32137843F001031370704700BFAD
:40318000A3430040014B1870704700BF034F0040014B1880704700BF044F0040014B1880704700BF064F004008B5154A137803F0010313700232137803F0FC031370114B80
:4031C0001A7802F0CF021A701A7842F030021A701A7802F0F0021A701A7842F00F021A70094A137843F0010313700920FFF7D0FF0920FFF7D3FF0020FFF7C4FF08BD00BF3D
:40320000004F00400B4F0040014F004008B5054B1B7823B9FFF7C8FF0122024B1A70FFF79DFF08BDDA83FF1F014B1B681864704708ED00E04001C0B2014B1870704700BFFC
:4032400000E400E00122014B1A60704700E100E00122014B1A60704780E100E010B50446FFF7F6FF2046FFF7DFFF0720FFF7E2FFFFF7E8FF10BD00BF0230800803D000BF61
:4032800001380046FCD17047EFF3108072B6704780F31088704700BF10B500F09DF800F047F910BB012000F025F9072818D102210F4800F0A3F802280AD102E00120FEF7AB
:4032C000D3FA0C4B1B7813F0020FF7D0002409E0084B1B7813F0020FE9D04FF0FF3401E04FF0FF3400F04AF900E00424204610BD8484FF1F2247004010B500F06DF800F070
:4033000017F9D0B900F056F90446072812D102E00120FEF7A9FA0A4B1B7813F0020FF7D0074B1B7813F0020F04D0054B1B789B0800D1002400F022F900E00424204610BD6D
:403340002247004008B5FFF7D7FF034610B9FFF7A3FF0346184608BD08B5FFF795FF0F4A137843F0080313701032137843F008031370C8220A4B1A700A4A137843F010039D
:4033800013701032137843F010031370064B1B7813F0200FFAD0FFF77BFF08BDA043004001470040AC43004000470040054A137843F001031370034B1B7813F0020FFAD02B
:4033C000704700BF02470040024A137803F0FE03137070470247004008B5FFF755FF064A137843F0080313701032137843F008031370FFF74DFF08BDA043004070B5064674
:403400000D4600240CE00120FEF72EFA064B1B7813F0010FF7D0054B1B7833550134E4B2AC42F3D3204670BD224700402047004030B43E2801D81F2B03D93F2827D90F2B76
:4034400027D8174C247814F0020F24D0154CB6252570D4252570012525700234247814F0020F1AD10F4C2070C1F300202070C9B22170591EC9B22170002104E0545C094875
:4034800004700131C9B29942F8D3072006E0012004E0012002E0042000E0092030BC7047224700402047004030B4104C247814F0020F15D00E4CB6252570D82525700525B4
:4034C00025700234247814F0020F0BD1084C2070080A2070C9B2217022702370072002E0042000E0092030BC704700BF22470040204700400C4B1B7813F0020F0FD00B4BA2
:40350000B6221A70E1221A700E221A7002331B7813F0020F05D1054B187007207047042070470920704700BF224700402047004010B5FFF7A9FE0F4B1B78A3B901220D4B8A
:403540001A700D4B1B6813F0010F0ED00A4A136823F00103136000BF00BF00BF0122054B5A60002402E0042400E00024FFF790FE204610BDDC83FF1F0400084008B5FFF7CD
:4035800083FE0A4B00221A705B68012B0AD1084A136843F00103136000BF00BF00BF0022024B5A60FFF774FE08BD00BFDC83FF1F04000840074B1B7813F0020F08D0064B0B
:4035C000B6221A70E0221A700D221A700720704704207047224700402047004081F0004102E000BF83F0004330B54FEA41044FEA430594EA050F08BF90EA020F1FBF54EA2E
:40360000000C55EA020C7FEA645C7FEA655C00F0E2804FEA5454D4EB5555B8BF6D420CDD2C4480EA020281EA030382EA000083EA010180EA020281EA0303362D88BF30BD93
:4036400011F0004F4FEA01314FF4801C4CEA113102D0404261EB410113F0004F4FEA03334CEA133302D0524263EB430394EA050F00F0A780A4F10104D5F1200E0DDB02FA04
:403680000EFC22FA05F2801841F1000103FA0EF2801843FA05F359410EE0A5F120050EF1200E012A03FA0EFC28BF4CF0020C43FA05F3C01851EBE37101F0004507D54FF097
:4036C000000EDCF1000C7EEB00006EEB0101B1F5801F1BD3B1F5001F0CD349085FEA30004FEA3C0C04F101044FEA445212F5800F80F09A80BCF1004F08BF5FEA500C50F16B
:40370000000041EB045141EA050130BD5FEA4C0C404141EB010111F4801FA4F10104E9D191F0000F04BF01460020B1FA81F308BF2033A3F10B03B3F120020CDA0C3208DD3E
:4037400002F1140CC2F10C0201FA0CF021FA02F10CE002F11402D8BFC2F1200C01FA02F120FA0CFCDCBF41EA0C019040E41AA2BF01EB0451294330BD6FEA04041F3C1CDAA7
:403780000C340EDC04F11404C4F1200220FA04F001FA02F340EA030021FA04F345EA030130BDC4F10C04C4F1200220FA02F001FA04F340EA0300294630BD21FA04F02946FD
:4037C00030BD94F0000F83F4801306BF81F480110134013D4EE77FEA645C18BF7FEA655C29D094EA050F08BF90EA020F05D054EA000C04BF1946104630BD91EA030F1EBFD7
:403800000021002030BD5FEA545C05D14000494128BF41F0004130BD14F580043CBF01F5801130BD01F0004545F0FE4141F470014FF0000030BD7FEA645C1ABF194610464C
:403840007FEA655C1CBF0B46024650EA013406BF52EA033591EA030F41F4002130BD00BF90F0000F04BF0021704730B54FF4806404F132044FF000054FF0000150E700BF98
:4038800090F0000F04BF0021704730B54FF4806404F1320410F0004548BF40424FF000013EE700BF42004FEAE2014FEA31014FEA02701FBF12F07F4393F07F4F81F060512C
:4038C000704792F0000F14BF93F07F4F704730B54FF4607401F0004521F0004120E700BF50EA010208BF704730B54FF000050AE050EA010208BF704730B511F0004502D5D0
:40390000404261EB41014FF4806404F132045FEA915C3FF4DCAE4FF003025FEADC0C18BF03325FEADC0C18BF033202EBDC02C2F1200300FA03FC20FA02F001FA03FE40EAA8
:403940000E0021FA02F11444C1E600BF80F0004002E000BF81F0004142001FBF5FEA410392EA030F7FEA226C7FEA236C6AD04FEA1262D2EB1363C1BFD21841404840414032
:40398000B8BF5B42192B88BF704710F0004F40F4000020F07F4018BF404211F0004F41F4000121F07F4118BF494292EA030F3FD0A2F1010241FA03FC10EB0C00C3F1200302
:4039C00001FA03F100F0004302D5494260EB4000B0F5000F13D3B0F1807F06D340084FEA310102F10102FE2A51D2B1F1004F40EBC25008BF20F0010040EA0300704749007E
:403A000040EB000010F4000FA2F10102EDD1B0FA80FCACF1080CB2EB0C0200FA0CF0AABF00EBC25052421843BCBFD0401843704792F0000F81F4000106BF80F40000013217
:403A4000013BB5E74FEA41037FEA226C18BF7FEA236C21D092EA030F04D092F0000F08BF0846704790EA010F1CBF0020704712F07F4F04D1400028BF40F00040704712F149
:403A800000723CBF00F50000704700F0004343F0FE4040F4000070477FEA226216BF08467FEA23630146420206BF5FEA412390EA010F40F4800070474FF0000304E000BF88
:403AC00010F0004348BF40425FEA000C08BF704743F0964301464FF000001CE050EA010208BF70474FF000030AE000BF50EA010208BF704711F0004302D5404261EB41010D
:403B00005FEA010C02BF84460146002043F0B64308BFA3F18053A3F50003BCFA8CF2083AA3EBC25310DB01FA02FC634400FA02FCC2F12002BCF1004F20FA02F243EB02009D
:403B400008BF20F00100704702F1200201FA02FCC2F1200250EA4C0021FA02F243EB020008BF20EADC7070474FF0FF0C1CEAD0521EBF1CEAD15392EA0C0F93EA0C0F6FD053
:403B80001A4480EA010C400218BF5FEA41211ED04FF0006343EA501043EA5111A0FB01310CF00040B1F5000F3EBF490041EAD3715B0040EA010062F17F02FD2A1DD8B3F133
:403BC000004F40EBC25008BF20F00100704790F0000F0CF0004C08BF49024CEA502040EA51207F3AC2BFD2F1FF0340EAC250704740F400004FF00003013A5DDC12F1190F79
:403C0000DCBF00F000407047C2F10002410021FA02F1C2F1200200FA02FC5FEA310040F1000053EA4C0308BF20EADC70704792F0000F00F0004C02BF400010F4000F013A0A
:403C4000F9D040EA0C0093F0000F01F0004C02BF490011F4000F013BF9D041EA0C018FE70CEAD15392EA0C0F18BF93EA0C0F0AD030F0004C18BF31F0004CD8D180EA0100E7
:403C800000F00040704790F0000F17BF90F0004F084691F0000F91F0004F14D092EA0C0F01D142020FD193EA0C0F03D14B0218BF084608D180EA010000F0004040F0FE400A
:403CC00040F40000704740F0FE4040F4400070474FF0FF0C1CEAD0521EBF1CEAD15392EA0C0F93EA0C0F69D0A2EB030280EA010C49024FEA402037D04FF0805343EA11110A
:403D000043EA10130CF000408B4238BF5B0042F17D024FF4000C8B4224BF5B1A40EA0C00B3EB510F24BFA3EB510340EA5C00B3EB910F24BFA3EB910340EA9C00B3EBD10FAC
:403D400024BFA3EBD10340EADC001B0118BF5FEA1C1CE0D1FD2A3FF650AF8B4240EBC25008BF20F0010070470CF0004C4CEA50207F32C2BFD2F1FF0340EAC250704740F4D3
:403D800000004FF00003013A37E792F0000F00F0004C02BF400010F4000F013AF9D040EA0C0093F0000F01F0004C02BF490011F4000F013BF9D041EA0C0195E70CEAD1538D
:403DC00092EA0C0F08D142027FF47DAF93EA0C0F7FF470AF084676E793EA0C0F04D14B023FF44CAF08466EE730F0004C18BF31F0004CCAD130F000427FF45CAF31F0004381
:403E00007FF43CAF5FE700BF4FEA4002B2F1FE4F0FD34FF09E03B3EB12620DD94FEA002343F0004310F0004F23FA02F018BF404270474FF00000704712F1610F01D142023B
:403E400005D110F0004008BF6FF0004070474FF00000704742000ED2B2F1FE4F0BD34FF09E03B3EB126209D44FEA002343F0004323FA02F070474FF00000704712F1610F59
:403E800001D1420202D14FF0FF3070474FF00000704700BF014B1868704700BF4883FF1F0E4B70B51E460E4C0025E41AA410A54204D056F8253098470135F8E702F0AAFF14
:403EC000084B094C1E46E41AA4100025A54204D056F8253098470135F8E770BD206E0000206E0000206E0000286E000010B5431E0A44914204D011F8014B03F8014FF8E786
:403F000010BD03460244934202D003F8011BFAE770472DE9F04788B0149F002B1E461299B8BF03F1004327F02007B6BF1E4600232D23462F1446109DDDF84CA00B7003D09A
:403F4000452F03D1013501E0032300E0022307AA049206AA03928DE828042246334600F00BFD472F804602D1119BDB0728D5462F08EB050911D198F80030302B0AD10022A7
:403F800000232046314602F04BFA18B9C5F10105CAF80050DAF800309944002200232046314602F03DFA08B9302202E0CDF81C9006E0079B994503D9591C07911A70F8E7E3
:403FC0004046079B159AC8EB0303136008B0BDE8F087034673B50029B8BF494203F8022BB4BF2D222B22092942701ADD0DF1070216460A2591FBF5F405FB1411092C01F1E9
:40400000300102F8011D2146F4DC3031541E02F8011CB4421A460AD214F8012B03F8012BF7E71A463024214402F8024B5970101A02B070BD2DE9F04F91B00C46DDF86880D0
:4040400016461F46054601F02FFA03681846099300F0FEFB00230E93D8F800300A90073323F0070303F1080294F81890D4F800B0C8F80020D3E90023C4E91223D4F84CA010
:40408000D4F848802AF000430B934FF0FF32A74B40460B9902F0F6F9A0B94FF0FF32A34B40460B9902F0D0F960B9002200234046514602F0BFF910B12D2384F843309C4B5C
:4040C0009C4A0AE0424653464046514602F0DAF9002800F09281984B984AB9F1470F8CBF90469846032323612BF0040323604FF0000A3DE0B9F1670F00F08A81B9F1470F2E
:4041000000F0868123600193636800210DF13302059002920093424653460691CDF81090CDF80CE02846FFF7F4FE09F0DF03472B804600F08481B9F1650F0D9900F28D81A6
:4041400001394A4604F150000D91FFF742FF0E9A82468318012A236100F37C812268D10700F178819DF8333013B12D2384F84330009733460FAA2146284600F09FF9013013
:4041800002D14FF0FF3096E123685A0501D4236965E0B9F1650F40F2D580D4E912010022002302F03DF978B30123654A31462846B8470130E5D00E9B0D9A9A420BDB236870
:4041C000D80708D423689B0740F111814FF0000804F1190906E10A9B099A31462846B8470130CED04FF0000804F11A090E9B013B9845E7DA01234A4631462846B847013029
:40420000BFD008F10108F1E70D9B002B29DC01234B4A31462846B8470130B2D00D9B23B90E9B13B92368D907CCD50A9B099A31462846B8470130A4D04FF0000904F11A0AB6
:404240000D9B5B42994509DA0123524631462846B847013095D009F10109F1E70E9B4246A7E00E9AA36D9A42A8BF1A46002A914606DC4FF0000A29EAE97904F11A0B11E067
:404280001346314642462846B8470130F1D178E701235A4631462846B84701303FF471AF0AF1010AA36DC9EB03029245F0DB08EB03090D9A0E9B9A420FDB2368DA070CD4E9
:4042C0000E9B0D9A9844C9EB08089B1A9845A8BF9846B8F1000F08DC0FE00A9B099A31462846B8470130EBD14BE743464A4631462846B84701303FF444AF4FF0000928EA73
:40430000E87804F11A0A09E00123524631462846B84701303FF435AF09F101090D9A0E9B9B1AC8EB03039945EEDB4BE7FFFFEF7FB16C0000B56C0000B96C0000BD6C0000A0
:40434000C16C00000E9A012A01DCDB0738D50123424631462846B84701303FF412AF0A9B099A31462846B84701303FF40AAFD4E912010022002302F053F820B14FF0000809
:4043800004F11A090EE00E9B08F10102013B19E001234A4631462846B84701303FF4F1AE08F101080E9B013B9845F1DB534604F1500231462846B84701307FF403AFE0E612
:4043C0004246012331462846B8470130EED1D8E601234A4631462846B84701303FF4D1AE08F10108E3680F9A9B1A9845F0DBE0680F9B9842B8BF18465DE062680EA8531CE4
:404400000DF1340E4BF480637FF474AE062201E012B90122626075E6002106910DF133018DE80C00236005904246CDF81090CDF80CE0029153462846FFF76BFD80460D9BEA
:40444000D81C02DB626893421DDDA9F102095FFA89F970E60133236184E6B9F1660F14D10029636807DD216113B92268D2071DD501330B4419E013B92268D00701D50233A7
:4044800013E0012311E04FF067090D9B0E9A934205DB22682361D10708D5013305E0002BD4BFC3F102030123134423610D9B4FF0000AA36556E611B0BDE8F08F2DE9F04787
:4044C00091461F460A698B6806469342B8BF1346C9F8003091F843200C46DDF8208012B10133C9F800302368990642BFD9F800300233C9F80030256815F0060510D104F1D8
:40450000190A07E00123524639463046C04701301AD00135E368D9F800209B1A9D42F1DB94F843302268003318BF012392060FD5E118302081F843005A1C94F845102244D7
:40454000023382F8431003E04FF0FF30BDE8F08704F1430239463046C0470130F4D02268D9F80050E36802F00602042A08BF5D1B2269A3680CBF25EAE57500259342C4BFFD
:404580009B1AED184FF000091A344D4509D00123224639463046C0470130D5D009F10109F3E70020BDE8F0872DE9F04317460A7E85B06E2A984606460C460C9B01F1430E67
:4045C00000F0AE8011D8632A22D009D8002A00F0BB80582A40F0CA8081F84520834955E0642A1ED0692A1CD0C0E0732A00F0B08009D86F2A2ED0702A40F0B8800A6842F0AE
:4046000020020A603EE0752A24D0782A3AD0ADE01A6801F14205111D1960136884F84230A8E021681A6811F0800F02D0111D196008E011F0400F02F10401196002D0B2F977
:40464000003000E01368002B3CDA2D225B4284F8432037E021681A6811F0800F02D0111D196007E011F0400F02F10401196001D0138800E01368227E5C496F2A14BF0A222C
:4046800008221BE078225A4984F845202268186812F0800F00F104051D6003D1550601D5038800E00368D00744BF42F0200222601BB9226822F0200222601022002084F838
:4046C000430001E049490A226568002DA56008DB206820F0040020602BB9002D7DD175460CE0002B79D07546B3FBF2F002FB1033CB5C05F8013D03460028F5D1082A0BD12E
:404700002368DA0708D5236962689A42DEBF302305F8013C05F1FF35C5EB0E0323612EE008681A6810F0800F496903D0101D1860136808E010F0400F02F104001860136810
:4047400001D0198000E0196000232361754616E01A68111D1960156800216268284600F0AFFE08B1401B6060636804E004F1420584F8422001232361002384F84330CDF866
:4047800000803B4603AA21463046FFF797FE013002D14FF0FF3026E023692A4639463046C0470130F5D023689B0710D5002504F1190907E001234A4639463046C047013067
:4047C000E7D00135E368039A9B1A9D42F2DBE068039B9842B8BF184605E00B7804F1420584F842308AE705B0BDE8F083C36C0000D46C00000EB400B54FF402719CB0ADF891
:4048000014106FF00041049107914FF6FF711DAB02900690084853F8042BADF81610006802A9019301F042FA029B00221A701CB05DF804EB03B070474883FF1F10F8012B99
:4048400011F8013B012A28BF9A42F7D0D01A7047034613F8012B002AFBD1181A013870472DE9F74F03690C6980469C427FDC013C01F114074FEA840E00F1140606EB0E03A7
:4048800057F82450019356F824300135B3FBF5F507EB0E09C5B34FF0000A3846B446D34650F8043B9AB205FB02A21B0C4FEA124A05FB03A392B2C2EB0B0BBCF800204FEAE9
:4048C000134A5A441FFA83FBDCF800308145CBEB134303EB224392B242EA03424FEA234B4CF8042BDCD256F80E306BB9019B043B9E421A4602D3C8F8104005E01268043B32
:40490000002AF8D1013CF3E7404600F0F4FF00282BDB304601354FF0000E57F8042B036891B2C1EB0E0E120C99B27144C2EB134303EB214389B24FEA234EB94541EA034322
:4049400040F8043BE9D256F8242006EB840362B9043B9E421A4602D3C8F8104005E01268043B002AF8D1013CF3E7284600E0002003B0BDE8F08F00002DE9F04F456A95B046
:404980008246219CCDE9022345B9102000F090FDCAF82400456085600560C560DAF82430196859B15A68012393404A608B60504600F0C9FDDAF8243000221A60039BA04A5D
:4049C000002BBDBF01232360039B0023BCBF23F000430393DDF80C80A8BF236028F000431B0D1B0593421DD142F20F73209A1360029B43B9934A944BC8F31300002814BF8F
:404A00001846104600E09048229B002B00F04685C37813B100F1080300E0C31C229A136000F03CBDDDE90245002200232046294601F0F6FC074658B1209A01231360229B27
:404A4000002B00F01E8581481860013800F026BD12AB019313AB009322462B46504600F0C5FFC8F30A56049056B1C5F3130343F07F51204641F44011A6F2FF3611971DE081
:404A8000139B129E1E4406F23243202B0ADD029A06F21240C3F1400322FA00F008FA03F3184304E0C3F12000029B03FA00F0FEF7D7FE0123A1F1F871013E11930022644B7C
:404AC000FEF790FD58A3D3E9002301F041FA58A3D3E90023FEF788FD044630460D46FEF7CFFE55A3D3E9002301F032FA02460B4620462946FEF778FD04460D4601F0D8FCD7
:404B00000022834600232046294601F093FC58B15846FEF7B5FE02460B462046294601F07FFC08B90BF1FF3BBBF1160F0DD8DDE90223484901EBCB01D1E9000101F098FCC8
:404B400030B10BF1FF3B002300E00123109300E01090129B9E1B731E079343BFC3F10008002307934FF00008BBF1000F06DB079BCDF82CB05B440793002705E00023CBEB84
:404B80000808CBF100070B931E9B092B28D8052BC4BF043B1E931E9BC8BF0025A3F10203D8BF0125032B20D8DFE803F0060E0204012302E0012308E000230A931F9B002B88
:404BC0001DDD9946059321E000230A931F9B0BEB030909F10103012B0593B8BF012315E0012500231E930A9501E001230A934FF0FF390022CDF8149012231F9206E04FF02D
:404C000001094B46CDF81490CDF87C90DAF8244000226260042101F114029A421CD86268490001326260F6E761436F63A787D23FB3C8608B288AC63FFB799F501344D33F05
:404C40000000F07FE56C0000EE6C0000C26C00000000F83F006D00006168504600F03EFCDAF8243020601B680693059B0E2B00F25B81002D00F05881DDE90234BBF1000FA9
:404C8000CDE90E3430DD9F4A0BF00F034FEA2B1502EBC303E80618CBCDE908340CD5DDE90E01994B05F00F05D3E9082301F07AFA0324CDE9020100E00224934E6DB1E90746
:404CC00008D5DDE90801D6E9002301F041F9CDE9080101346D100836F0E7DDE90823DDE9020101F05FFA20E0CBF1000505B3DDE90E01844B05F00F0203EBC203D3E90023BC
:404D000001F026F9CDE902017F4E2D110023022455B1EA0705D5D6E9002301F019F9013401236D100836F3E71BB1CDE9020100E00224109BE3B1DDE902560022734B28467C
:404D4000314601F077FB98B1059B8BB1B9F1000F40F3E6800BF1FF330893314600226C4B284601F0F5F80134CDE902014E4602E0059ECDF820B02046FEF782FDDDE902231C
:404D800001F0E6F8634B0022FEF72EFCA1F1507304460C931D46D6B9DDE9020100225E4BFEF720FC22460C9BCDE9020101F060FB002840F03F820C99224601F10043DDE92B
:404DC000020101F037FB002840F02B82A8E00A9A4C4B711E002A49D003EBC103D3E9002300204E4901F0DEF922462B46FEF7FAFBCDE90C01069CDDE9020101F059FB054662
:404E0000FEF73EFD02460B46DDE90201FEF7EAFBDDE90C23303504F8015BCDE9020101F009FB002840F01D83DDE9022300203749FEF7D8FBDDE90C2301F0FCFA002840F027
:404E4000D180069BE31AB3426ADADDE90C0100222F4B01F07DF80022CDE90C01DDE902012B4B01F075F8CDE90201C4E703EBC1012246D1E900012B4601F06AF8069BCDE961
:404E80000C011D469C19DDE9020101F011FB0646FEF7F6FC02460B46DDE90201FEF7A2FB303605F8016BAC42CDE902014FF0000222D11A4BDDE90C01FEF796FB02460B46DF
:404EC000DDE9020101F0D4FA002840F08B80DDE90C2300201149FEF785FB02460B46DDE9020101F0A7FAD8B114F8013C621E302B40F0B7821446F7E7054B01F029F8CDE989
:404F00000201C0E7006D0000D86D00000000F03F0000244000001C40000014400000E03FDDE90E34CDE90234139B002B7CDBBBF10E0F79DCAB4B03EBCB03D3E900671F9BE2
:404F4000002B14DA059B002B11DC40F06C810022A54B3046394600F0FBFFDDE9022301F07DFA059D2E46002840F05F8165E1069CDDE9028932463B464046494601F012F96E
:404F800001F096FA0546FEF77BFC32463B4600F0DFFF0B46024649464046FEF723FB05F1300E069B04F801EBC3EB040E059B73452DD102460B46FEF717FB804689460246E1
:404FC0000B463046394601F035FA78B942464B463046394601F024FA002800F04482EB0704D440E2DDF820B000E01C4614F8012C631E392A07D1069A9A42F6D10699302223
:405000000BF1010B0A701A7801321A702BE20022764B00F09DFF002200238046894601F0FFF90028A6D01EE20A9A002A2BD01E9A012A0ADC119A12B103F2334302E0129BC8
:40504000C3F136033D46444613E0059B5D1EAF42BFBF0B9BEA1B9B180B93059BB6BF2F467D1B0025002BA7BF4446059BC3EB08040023079A01211A4450469844079200F0C2
:4050800001FB064602E03D4644460A9E5CB1079B002B08DDA342A8BF2346079AC3EB0808E41AD31A0793002F1DDD0A9BABB18DB131462A46504600F07FFB049A0146064639
:4050C000504600F0E8FA04990890504600F03BFA089B04937A1B06D000E03A460499504600F06AFB04900121504600F0CBFA0B9B05465BB31A460146504600F05DFB1E9B8D
:405100000546012B18DC029B83B9039BC3F3130373B9039B23F000473F0D3F054FB1079B08F1010801330793012702E0002700E0029F0B9B73B100E000272B6905EB83030E
:40514000186900F052FAC0F1200004E01E9B012BD9DD0B9F0120079B184410F01F0008D0C0F12003042B02DDC0F11C0002E006D018461C30079B8044034404440793B8F119
:40518000000F05DD42460499504600F063FB0490079B002B05DD29461A46504600F05AFB0546109B23B32946049800F0A4FB00281EDA00230A220499504600F0DBF90A9B97
:4051C0000BF1FF3B0490002B00F05F81314600230A22504600F0CEF9B9F1000F06463FDC3BE000BF006D00000000144000002440059B002B2BDC1E9B022B28DDDDF8149082
:40520000B9F1000F11D129464B460522504600F0B1F901460546049800F06DFB00280CDC03E0354600E000252E461F9B069C6FEA030B09E03546DDF820B0069B069A5C1C8A
:40524000312313700BF1010B05960026F7E00A9BDDF8149023B9069CB2E01E9B022BCFDC002C05DD31462246504600F0F3FA06469FB17168504600F031F90446326906F197
:405280000C01023292000C30FEF730FE01222146504600F0DFFA059000E00596029B069F03F00103079329460498FFF7D9FA3146044600F13008049800F01DFB059A02905D
:4052C0002946504600F033FBC36802463BB901460A90049800F00FFB0A9A034600E00123114650460A9300F02EF90A9B53B91E9A42B9079A32B9B8F1390F2AD0029B002B78
:405300001CDC1DE0029A002A04DB1BD11E9ACAB9079ABAB9002B13DD01220499504600F099FA2946049000F0E6FA002803DC07D118F0010F04D0B8F1390F0AD004F131080D
:405340007C1C0CE0002B07F101040BDDB8F1390F03D139233B70013756E008F1010887F800806CE0069B2746E31A4B4504F8018C3BD000230A220499504600F0FBF8059BDE
:4053800004909E424FF00A024FF000033146504604D100F0EFF80646059084E700F0EAF8002306460A220599504600F0E3F8059079E700230A220499504600F0DBF80490AD
:4053C00029460498FFF74CFA069B00F1300804F8018BE31A4B45ECDB069B0596B9F1010FACBF4B4401331F46002601220499504600F030FA2946049000F07DFA002803DC30
:4054000015D118F0010F12D03C4614F8013C621E392B09D1069B934204D10BF1010B3123069A02E01446F0E70133137007E03C4614F8013C621E302B01D11446F8E72946EB
:40544000504600F080F8059B6BB12EB19E4203D03146504600F077F80599504600F073F801E0DDF820B00499504600F06CF80023209A23700BF101031360229B1BB11C60F0
:4054800001E008480AE0069808E0B9F1000F3FF7E2AE1E9B022B7FF7DEAEB1E615B0BDE8F08F00BFC16C0000004870474C83FF1F024B0146186800F041BB00BF4883FF1FE4
:4054C00010B5C9B202449042034605D01C7801308C42F8D1184610BD002010BD70B5456A04460E463DB91020FFF7E2FF6062456085600560C560656AEB6843B1636ADB6857
:4055000053F8260078B1026843F8262017E021220421204600F0B8FA636AE860DB68002BECD1002070BD012101FA06F56A1D9200204600F0A9FA0028F3D04660856000232F
:405540000361C36070BD70B5446A06460D463CB91020FFF7ADFF7062446084600460C4603DB1736A6A68DB6853F82210296043F8225070BD2DE9F04106460C460D691F46DC
:4055800001F1140E0023DEF80000013381B202FB0171000C0F0C02FB007089B201EB00419D424FEA10474EF8041BECDCD7B1A3689D4212DB616830460131FFF78FFF804656
:4055C000226904F10C01023292000C30FEF78EFC21463046FFF7B7FF444604EB850301355F6125612046BDE8F081030C1B0413B90004102300E0002310F07F4F04BF000254
:40560000083310F0704F04BF0001043310F0404F04BF80000233002803DB420003D5581C70471846704720207047036813F007020BD0D90722D49A074BBF5B089B080360DB
:4056400003604CBF01200220704799B209B91B0C102213F0FF0F04BF1B0A0832190704BF1B090432990704BF9B080232D90702D45B0805D00132036010467047002070474A
:405680002020704710B50C460121FFF727FF01224461026110BD2DE9F74F14460A69236988469A42BEBF0B46A0461C46D8F81070D4F81090D8F80830D8F8041007EB090688
:4056C0009E42C8BF0131FFF709FF00F114052B4605EB860C0022634502D243F8042BFAE704F1140208F1140102EB890301EB87070093009B0192934257D9B2F800B0BBF155
:40570000000F23D08946AE464FF0000859F8044BBEF800A0A3B20BFB03A34FEA144ADEF8004043444FEA14480BFB0A84F24604EB13449BB243EA04434F454FEA14484AF85F
:40574000043B01D9D646E1E7CEF80480019B0432B3F802A0BAF1000F21D02C4689462B684FF00008B9F800E0B4F802B09BB20AFB0EBEA346F04443EA08434BF8043B59F888
:40578000043BB4F804E01B0C0AFB03E34F4503EB18434FEA134801D95C46E3E763600435A7E75CF8043D13B9013E002EF9DC066103B0BDE8F08F00002DE9F843154612F038
:4057C000030206460F4607D0214C013A002354F82220FFF7CFFE0746AD1036D0746A3CB91020FFF765FE7062446084600460C460D6F82480D8F808404CB940F271213046F9
:40580000FFF740FF04460023C8F8080003604FF00008EB070AD5394622463046FFF73BFF814639463046FFF78EFE4F466D100CD0206808B10446ECE7224621463046FFF731
:405840002AFF2060C0F80080F4E73846BDE8F883C86D00002DE9F0470C460746914626694FEA621A56444968A368751CAB4202DA01315B00FAE73846FFF730FE00238046E9
:405880001A4600F11401534503DA41F823200133F9E72AEAEA73206901EB830319F01F0904F1140101EB800E14D0C9F1200C002208689A4600FA09F0024343F8042B51F835
:4058C000042B8E4522FA0CF2F2D8CAF8042042B1B51C06E0043B51F8042B8E4543F8042FF9D8013D3846C8F810502146FFF72BFE4046BDE8F08703690A6910B59B1A11D12A
:4059000092001430143183180A4453F8044D52F8041D8C4202D007D3012010BD9842F4D3002010BD184610BD4FF0FF3010BD2DE9F8430C460746114620461546FFF7DBFF28
:40594000061E08D131463846FFF7C8FD012303614661BDE8F883BCBF23462C4638466168BABF1D4601260026FFF7B8FD2B69C660266905F1140904F1140101EB860709EBE7
:40598000830800F114054FF0000C51F8042B59F8044B93B29C44A3B2240CC3EB0C03C4EB124202EB23429BB24FEA224CC84543EA02428E4645F8042BE7D8BE450ED25EF889
:4059C000041B8AB26244131403EB114392B242EA03424FEA234C45F8042BEEE755F8043D0BB9013EFAE70661BDE8F8832DE9F3411C4601219046089E099DFFF76FFDC4F39D
:405A00001302C4F30A5407460CB142F480120192B8F1000F19D002A840F8088DFFF705FE009B48B1019AC0F1200102FA01F10B43C2407B61019200E07B61019B002B14BFC2
:405A400002210121BB61396107E001A8FFF7EDFD019B01217B613961203034B1A4F2334404443460C0F1350009E0A0F2324007EB810330601869FFF7B8FDC0EB41102860E0
:405A8000384602B0BDE8F08138B502FB01F4214600F054F8054618B122460021FEF731FA284638BD38B50546002944D051F8043C0C1F002BB8BFE41800F017FA1E4A136853
:405AC000114613B96360146030E0A3420DD92268A018834201BF18685B681218226063600C6023E0A24203D813465A68002AF9D118681918A1420BD1216801445818824249
:405B0000196013D110685268014419605A600DE002D90C232B6009E021686018824201BF106852680918216062605C602846BDE8384000F0DBB938BDE883FF1F70B5CD1C81
:405B400025F0030508350C2D38BF0C25002D064601DBA94202D90C23336046E000F0C5F9234B1C681A462146A1B10B685B1B0ED40B2B03D90B60CC18CD501EE08C420BBFCF
:405B800063684B681360636018BF0C4615E00C464968E9E7174C23681BB9304600F07AF920602946304600F075F9431C18D0C41C24F00304A0420DD12560304600F096F966
:405BC00004F10B00231D20F00700C31A0ED05A42E25070BD211A304600F05CF90130EBD10C233360304600F081F9002070BD00BFE883FF1FE483FF1F2DE9F0478E688246EE
:405C00009E420C46914698463ED88A8912F4906F3AD02568096902236F1A656905EB450595FBF3F57B1C43449D4238BF1D4653050FD52946FFF782FF064698B13A46216900
:405C4000FEF754F9A38923F4906343F08003A38113E02A4600F04BF9064670B921695046FFF720FF0C23CAF80030A3894FF0FF3043F04003A381BDE8F08726613E44266091
:405C800046466561ED1BA560464528BF464649463246206800F00EF9A36800209B1BA36023681E442660BDE8F08700002DE9F04F9DB003938B8980461C060D4616460DD5C9
:405CC0000B695BB94021FFF739FF2860286118B90C23C8F80030CDE040236B610023099320238DF82930DFF89CB130238DF82A3037463C4614F8013B1BB9B7EB060910D0CE
:405D000003E0252BF9D02746F3E74B46324629464046FFF771FF013000F0A780099B4B4409933B78002B00F0A08000234FF0FF3204930793059206938DF853301A930126E7
:405D4000052221784E48FFF7BBFB671C049B38B14B4A3C46801A06FA00F018430490EFE7D90644BF20228DF853201A0744BF2B228DF8532022782A2A03D0079A00210A207E
:405D80000BE0039A111D12680391002A10DA524243F00200079204900BE027463B780134303B092B03D800FB02320121F5E701B107923B782E2B1ED17B782A2B0AD1039B27
:405DC00002371A1D1B680392002BB8BF4FF0FF33059310E0002319460593781C0A2407463A780130303A092A03D804FB01210123F5E703B10591032239782248FFF760FB00
:405E000040B14023CBEB000003FA00F0049B013718430490397806221B487E1C8DF82810FFF74EFB88B1194B33B9039B073323F007030833039314E003AB00932A46144B80
:405E400004A94046FEF7F6F807E003AB00932A460F4B04A94046FEF7A7FBB0F1FF3F824603D0099B5344099342E7AB895B0601D4099801E04FF0FF301DB0BDE8F08F00BFCC
:405E8000006E0000066E00000A6E000035400000F95B000038B5064C0023054608462360FBF762FC431C02D1236803B12B6038BD8884FF1F884210B501EB020301D8421E1D
:405EC0000BE09842FBD28118D21AD34204D013F8014D01F8014DF8E710BD994204D011F8014B02F8014FF8E710BD70477047F8B5074615460E4621B91146BDE8F840FFF741
:405F00001DBE1AB9FFF7CEFD2846F8BD00F015F885420ED929463846FFF710FE044650B131462A46FDF7E2FF31463846FFF7BAFD01E03046F8BD2046F8BD51F8040C0028E2
:405F4000BEBF091851F8043CC01804387047000070B54FF0FF0C4CF4E06C1CEA11541DBF1CEA135594EA0C0F95EA0C0F00F0DEF82C4481EA030621EA4C5123EA4C5350EA14
:405F8000013518BF52EA033541F4801143F4801338D0A0FB02CE4FF00005E1FB02E506F00042E0FB03E54FF00006E1FB03569CF0000F18BF4EF0010EA4F1FF04B6F5007F60
:405FC00064F5407404D25FEA4E0E6D4146EB060642EAC62141EA55514FEAC52040EA5E504FEACE2EB4F1FD0C88BFBCF5E06F1ED8BEF1004F08BF5FEA500E50F1000041EB5B
:40600000045170BD06F0004646EA010140EA020081EA0301B4EB5C04C2BFD4EB0C0541EA045170BD41F480114FF0000E013C00F3AB8014F1360FDEBF002001F0004170BD04
:40604000C4F10004203C35DA0C341BDC04F11404C4F1200500FA05F320FA04F001FA05F240EA020001F0004221F0004110EBD37021FA04F642EB06015EEA430E08BF20EA4A
:40608000D37070BDC4F10C04C4F1200500FA04F320FA05F001FA04F240EA020001F0004110EBD37041F100015EEA430E08BF20EAD37070BDC4F1200500FA05F24EEA020E24
:4060C00020FA04F301FA05F243EA020321FA04F001F0004121FA04F220EA020000EBD3705EEA430E08BF20EAD37070BD94F0000F0FD101F00046400041EB010111F4801F49
:4061000008BF013CF7D041EA060195F0000F18BF704703F00046520043EB030313F4801F08BF013DF7D043EA0603704794EA0C0F0CEA135518BF95EA0C0F0CD050EA41065D
:4061400018BF52EA4306D1D181EA030101F000414FF0000070BD50EA410606BF1046194652EA430619D094EA0C0F02D150EA013613D195EA0C0F05D152EA03361CBF1046D4
:4061800019460AD181EA030101F0004141F0FE4141F470014FF0000070BD41F0FE4141F4780170BD70B54FF0FF0C4CF4E06C1CEA11541DBF1CEA135594EA0C0F95EA0C0F54
:4061C00000F0A7F8A4EB050481EA030E52EA03354FEA013100F088804FEA03334FF0805545EA131343EA12634FEA022245EA111545EA10654FEA00260EF000419D4208BF11
:40620000964244F1FD0404F5407402D25B084FEA3202B61A65EB03055B084FEA32024FF480104FF4002CB6EB020E75EB030E22BFB61A754640EA0C005B084FEA3202B6EB90
:40624000020E75EB030E22BFB61A754640EA5C005B084FEA3202B6EB020E75EB030E22BFB61A754640EA9C005B084FEA3202B6EB020E75EB030E22BFB61A754640EADC0023
:4062800055EA060E18D04FEA051545EA16754FEA06164FEAC30343EA52734FEAC2025FEA1C1CC0D111F4801F0BD141EA00014FF000004FF0004CB6E711F4801F04BF014383
:4062C0000020B4F1FD0C88BFBCF5E06F3FF6AFAEB5EB030C04BFB6EB020C5FEA500C50F1000041EB045170BD0EF0004E4EEA113114EB5C04C2BFD4EB0C0541EA045170BD1F
:4063000041F480114FF0000E013C90E645EA060E8DE60CEA135594EA0C0F08BF95EA0C0F3FF43BAF94EA0C0F0AD150EA01347FF434AF95EA0C0F7FF425AF104619462CE78A
:4063400095EA0C0F06D152EA03353FF4FDAE1046194622E750EA410618BF52EA43067FF4C5AE50EA41047FF40DAF52EA43057FF4EBAE12E74FF0FF3C06E000BF4FF0010C37
:4063800002E000BF4FF0010C4DF804CD4FEA410C7FEA6C5C4FEA430C18BF7FEA6C5C1BD001B050EA410C0CBF52EA430C91EA030F02BF90EA020F0020704710F1000F91EADF
:4063C000030F58BF994208BF90422CBFD8176FEAE37040F0010070474FEA410C7FEA6C5C02D150EA013C07D14FEA430C7FEA6C5CD6D152EA033CD3D05DF8040B704700BF61
:406400008446104662468C461946634600E000BF01B5FFF7B7FF002848BF10F1000F01BD4DF808EDFFF7F4FF0CBF012000205DF808FB00BF4DF808EDFFF7EAFF34BF012049
:4064400000205DF808FB00BF4DF808EDFFF7E0FF94BF012000205DF808FB00BF4DF808EDFFF7CEFF94BF012000205DF808FB00BF4DF808EDFFF7C4FF34BF012000205DF807
:4064800008FB00BF4FEA410C7FEA6C5C02D150EA013C0AD14FEA430C7FEA6C5C02D152EA033C02D14FF0000070474FF0010070474FEA410212F5001215D211D56FF47873C7
:4064C000B3EB625212D94FEAC12343F0004343EA505311F0004F23FA02F018BF404270474FF00000704750EA013005D111F0004008BF6FF0004070474FF00000704700BF43
:40650000000000000000000053797374656D20737461727465642E0D0A0000000021007F2200070000AED580A83FD300408D142000A1C8DA2281CFD9F1DB40A4A6AF000060
:4065400000000000003E5B4F5B3E3E6B4F6B3E1C3E7C3E1C183C7E3C181C577D571C1C5E7F5E1C00183C1800FFE7C3E7FF0018241800FFE7DBE7FF30483A060E2629792920
:4065800026407F050507407F05253F5A3CE73C5A7F3E1C1C08081C1C3E7F14227F22145F5F005F5F06097F017F006689956A606060606094A2FFA29408047E040810207EBE
:4065C000201008082A1C08081C2A08081E101010100C1E0C1E0C30383E3830060E3E0E06000000000000005F00000007000700147F147F14242A7F2A12231308646236494A
:406600005620500008070300001C2241000041221C002A1C7F1C2A08083E080800807030000808080808000060600020100804023E5149453E00427F4000724949494621C5
:4066400041494D331814127F1027454545393C4A49493141211109073649494936464949291E0000140000004034000000081422411414141414004122140802015909068D
:406680003E415D594E7C1211127C7F494949363E414141227F4141413E7F494949417F090909013E414151737F0808087F00417F41002040413F017F081422417F40404008
:4066C000407F021C027F7F0408107F3E4141413E7F090909063E4151215E7F09192946264949493203017F01033F4040403F1F2040201F3F4038403F631408146303047883
:4067000004036159494D43007F4141410204081020004141417F04020102044040404040000307080020545478407F284444383844444428384444287F38545454180008D0
:406740007E090218A4A49C787F0804047800447D40002040403D007F1028440000417F40007C047804787C080404783844444438FC1824241818242418FC7C0804040848C4
:406780005454542404043F44243C4040207C1C2040201C3C4030403C44281028444C9090907C4464544C4400083641000000770000004136080002010204023C2623263C7F
:4067C0001EA1A161123A4040207A385454555921555579412254547842215554784020545579400C1E5272123955555559395454545939555454580000457C410002457D64
:40680000420001457C407D1211127DF0282528F07C545545002054547C547C0A097F4932494949323A4444443A324A4848303A4141217A3A42402078009DA0A07D3D4242B6
:40684000423D3D4040403D3C24FF2424487E4943662B2FFC2F2BFF0929F620C0887E090320545479410000447D413048484A32384040227A007A0A0A727D0D19317D262983
:40688000292F28262929292630484D4020380808080808080808382F10C8ACBA2F102834FA00007B000008142A142222142A1408AA005500AAAA55AA55AA000000FF0010E7
:4068C0001010FF00141414FF001010FF00FF1010F010F0141414FC001414F700FF0000FF00FF1414F404FC141417101F10101F101F1414141F00101010F0000000001F101A
:406900001010101F10101010F010000000FF101010101010101010FF10000000FF140000FF00FF00001F10170000FC04F414141710171414F404F40000FF00F7141414141F
:40694000141414F700F7141414171410101F101F141414F4141010F010F000001F101F0000001F14000000FC140000F010F01010FF10FF141414FF141010101F0000000077
:40698000F010FFFFFFFFFFF0F0F0F0F0FFFFFF0000000000FFFF0F0F0F0F0F3844443844FC4A4A4A347E02020606027E027E0263554941633844443C04407E201E20060243
:4069C0007E020299A5E7A5991C2A492A1C4C7201724C304A4D4D303048784830BC625A463D3E494949007E0101017E2A2A2A2A2A44445F444440514A444040444A514000A2
:406A000000FF0103E080FF000008086B6B083612362436060F090F06000018180000001010003040FF0101001F01011E00191D1712003C3C3C3C00000000000058203A20DA
:406A400025332E3266203A2025332E326600000059203A2025332E3266203A2025332E326600000072686F6D00000000486F6D653A20583D256420593D25640D0A000000CA
:406A800072686F7200000000486F6D65206F6E20726573746172743A2025640D0A000000726163740000000072706F730000000072736F73000000005369676E616C206F54
:406AC0006E20726573746172743A2025640D0A0077686F6D0000000077686F720000000077706F730000000077736F730000000077706F6900000000496E76616C69642053
:406B000049442E006D686F6D000000006D616374000000006D706F690000000072706F69000000004572726F722C20726573657474696E6720696E7075742070726F636521
:406B400073736F722E0D0A002532642E3A2025640D0A00005361766520736C6F7420656D7074792E00000000C84900401900004F0040180000510040100040510040300085
:406B8000F0510040100000000140001000140140000800400140000A004C0140000200500140200060520040BC0E0048060000202020202020202020282828282820202079
:406BC0002020202020202020202020202020208810101010101010101010101010101004040404040404040404101010101010104141414141410101010101010101010115
:406C000001010101010101010101101010101010424242424242020202020202020202020202020202020202020210101010200000000000000000000000000000000000D6
:406C40000000000000000000000000000000000000000000000000000000000000000000000000000000000000000000000000000000000000000000000000000000000014
:406C800000000000000000000000000000000000000000000000000000000000000000000000000000000000000000000000004300494E4600696E66004E414E006E616E5D
:406CC00000300030313233343536373839414243444546003031323334353637383961626364656600496E66696E697479004E614E00504F534958002E0000000000000058
:406D0000000000000000F03F000000000000244000000000000059400000000000408F40000000000088C34000000000006AF8400000000080842E4100000000D0126341F2
:406D40000000000084D797410000000065CDCD41000000205FA00242000000E876483742000000A2941A6D42000040E59C30A2420000901EC4BCD64200003426F56B0C43FB
:406D80000080E03779C3414300A0D8855734764300C84E676DC1AB43003D9160E458E143408CB5781DAF154450EFE2D6E41A4B4492D54D06CFF08044F64AE1C7022DB54425
:406DC000B49DD9794378EA4405000000190000007D000000000000000080E03779C34143176E05B5B5B89346F5F93FE9034F384D321D30F94877825A3CBF737FDD4F1575ED
:406E0000232D302B2000686C4C0065666745464700000000F8B500BFF8BC08BC9E4670474D000000E5170000F8B500BFF8BC08BC9E46704729000000486E0000C880FF1FD7
:406E4000C002000008010000000000004000000000000000000000000000000000000000000000000000000000000000000000000000000000000000000000000000000007
:406E800000000000000000000000000000000000000000000000000000000000000000000000000000000000000000000000000000000000000000000000000000000000D2
:406EC0000000000000000000000000000000000000000000000000000000000000000000000000000000000000000000000000000000000000000000000000000000000092
:406F00000000000000000000000000000000000000000000000000000000000000000000000000000000000000000000000000000000000000000000000000000000000051
:406F40000000000000000000000000000000000000000000000000000000000000000000000000000000000000000000000000000000000000000000000000000000000011
:406F800000000000000000000000000000000000000000000000000000000000000000000000000000000000000000000000000000000000000000000000000000000000D1
:406FC0000000000000000000000000000000000000000000000000000000000000000000000000000000000000000000000000000000000000000000000000000000000091
:407000000000000000000000000000000000000000000000000000000000000000000000000000000000000000000000000000000000000000000000000000000000000050
:40704000000000000000000000000000000000009084FF1F0000E02EC05D00001800000000366E01AE6B0000000000000000000000000000000000000000000000000000DD
:407080000000000000000000AF6C000000000000000000000000000000000000000000000000000000000000000000000000000000000000000000000000000000000000B5
:4070C0000000000000000000E882FF1FF86C0000056E0000056E0000056E0000056E0000056E0000056E0000056E0000056E0000056E0000FFFFFFFFFFFFFFFFFFFFFFFFA5
:40710000FFFF000000000000000000000000000000000000000000000000000000000000000000000000000000000000000000000000000000000000000000000000000051
:40714000000000000000000000000000000000000000000000000000000000000000000000000000000000000000000000000000000000000000000000000000000000000F
:4071800000000000000000000000000000000000000000000000000000000000000000000000000000000000000000000000000000000000000000000000000000000000CF
:4071C000000000000000000000000000000000000000000000000000000000000000000000000000000000000000000000000000000000000000000000000000000000008F
:40720000000000000000000000000000000000000000000000000000000000000000000000000000000000000000000000000000000000000000000000000000000000004E
:020000040003F7
